:1000000068110020BD27000055600000D5260000C3
:10001000D5260000D5260000D5260000D5260000F4
:10002000D5260000D5260000D5260000CD250000ED
:10003000D5260000D526000075250000456000008B
:100040007D2700007D2700007D2700007D27000020
:100050007D2700007D2700007D2700007D27000010
:100060007D2700007D2700007D2700007D27000000
:100070007D2700007D2700007D2700007D270000F0
:100080007D2700007D2700007D2700007D270000E0
:100090007D2700007D2700007D2700007D270000D0
:1000A0007D2700007D2700007D2700007D270000C0
:1000B0007D2700007D2700007D2700007D270000B0
:1000C0007D2700007D2700007D2700007D270000A0
:0C00D0007D2700007D2700007D27000038
:1000DC007BB972B90029BEBF00204FF0004106E089
:1000EC0008BF00281CBF6FF000414FF0FF3000F03C
:1000FC003FB8ADF1080C6DE904CE002909DB002BEB
:10010C001ADB00F037F8DDF804E0DDE9022304B077
:10011C007047404261EB4101002B1BDB00F02AF8D9
:10012C00DDF804E0DDE9022304B0404261EB41015B
:10013C00524263EB43037047524263EB430300F0BC
:10014C0019F8DDF804E0DDE9022304B0404261EB6C
:10015C0041017047524263EB430300F00BF8DDF8AA
:10016C0004E0DDE9022304B0524263EB4303704721
:10017C00704700BF2DE9F04F099F154604468E4687
:10018C001E46002B40F0CC808A42B2FA82FC4CD93D
:10019C00BCF1000F0BD0CCF1200801FA0CFE20FAB8
:1001AC0008F802FA0CF548EA0E0E00FA0CF44FEAC5
:1001BC0015491FFA85F8BEFBF9FA210C09FB1AE365
:1001CC000AFB08FB41EA03439B452AD9EB180AF1C9
:1001DC00FF3004D29B4502D9AAF102002B44A3EBB9
:1001EC000B03A4B2B3FBF9F209FB123302FB08F8C0
:1001FC0044EA0344A04516D92C1902F1FF3303D26B
:10020C00A04501D9931E2C44A4EB080443EA0040FA
:10021C0027B124FA0CF400233C607B603146BDE826
:10022C00F08F5046DBE71346EEE702B9FFDEBCF178
:10023C00000F2ED18B1A01264FEA154EAAB2B3FB32
:10024C00FEF8210C0EFB183308FB02F941EA0343BC
:10025C00994561D9EB1808F1FF3004D2994502D9C0
:10026C00A8F102002B44A3EB0903A4B2B3FBFEF1EB
:10027C000EFB11334A4344EA0344A2424ED92C19D3
:10028C0001F1FF3303D2A24201D98B1E2C44A41AD4
:10029C00BCE7CCF1200E02FA0CF521FA0EF901FAAA
:1002AC000CF320FA0EFE4EEA03034FEA154800FA4F
:1002BC000CF4B9FBF8F11FFA85FE08FB1192180C2F
:1002CC0001FB0EF640EA0242964221D9AA1801F12E
:1002DC00FF3003D2964201D9881E2A44921B9BB24E
:1002EC00B2FBF8F908FB192209FB0EFE43EA0243A4
:1002FC009E450FD9EB1809F1FF3604D29E4502D961
:10030C00A9F102062B44A3EB0E0346EA004693E741
:10031C000846E3E74E46F6E74046A4E70B46B6E749
:10032C008B4205D90FB1C7E900010026304675E7AD
:10033C00B3FA83FCBCF1000F0FD18B4201D3824284
:10034C0009D8841A61EB030E0120002F6AD0C7E98B
:10035C00004E002662E76046F7E7CCF1200E03FA68
:10036C000CF322FA0EF521FA0EF41D4301FA0CF3EC
:10037C0020FA0EF10B434FEA154A00FA0CF6B4FBC7
:10038C00FAF91FFA85F80AFB19401C0C09FB08F155
:10039C0044EA0044A14202FA0CF23FD92C1909F1AB
:1003AC00FF3004D2A14202D9A9F102002C44641AF4
:1003BC009BB2B4FBFAF90AFB194409FB08F843EAAF
:1003CC00044188452CD9691809F1FF3304D28845BA
:1003DC0002D9A9F10203294443EA0040A1EB080128
:1003EC00A0FB02894945C2464C4602D306D146457C
:1003FC0004D2B8EB020A69EB0504013897B1B6EBED
:10040C000A0361EB040606FA0EFE23FA0CF34EEA1D
:10041C00030326FA0CF6C7E900369AE74846C6E706
:10042C004B46D9E73E46F9E610B50446416008460E
:10043C0003F06AFC206020B9044804F0E5FD0120BB
:10044C0010BD034804F0E0FD0020F9E74C700000FB
:10045C007670000010B58160006843681C68134614
:10046C000A460021A047002802DA044804F0CCFD1B
:10047C00034804F0C9FD002010BD00BF107000003F
:10048C002B700000024610B51173006892680B4681
:10049C0041684C680021A047024804F0B5FD0020DB
:1004AC0010BD00BF9270000070B50B4E0B4D0C4C84
:1004BC0031462846FFF7B8FF31462046FFF7B4FF18
:1004CC00012212212846FFF7C5FF204601221321E5
:1004DC00BDE87040FFF7BEBFAD7000000800002003
:1004EC0018000020302804D0312805D0034804F02F
:1004FC008BBD0348FFF7C6BF0248FBE7B470000092
:10050C0008000020180000200B6801330B60014B21
:10051C001B681847A81C00202DE9F04F85B09B469E
:10052C000E9CDFF88890012CB8BF0124012B0CBF66
:10053C0030232023164682468846029301250A273B
:10054C000022B6FBF9F301930AB9B1451DD8019B02
:10055C00414603F13000D04701350122019B013F98
:10056C00012F09FB13664FF00A03B9FBF3F9E8D12D
:10057C00414606F13000D047BBF1030F02D1641B9A
:10058C00002C0EDC05B0BDE8F08FBC42E6DBBBF105
:10059C00020FE3D84146029803920135D047039AE3
:1005AC00DCE741462020D047013CE9E700CA9A3BF2
:1005BC00014B1860704700BFA81C002007B5002332
:1005CC00019302460B46034801A904F0ADFB03B0AE
:1005DC005DF804FB150500004FF02003EFF31182CA
:1005EC0083F31188BFF36F8F06490123C1F840359F
:1005FC004FF08041C1F8783582F31188BFF36F8FCB
:10060C000020704700E0014020B1034B800143F013
:10061C0001031847704700BFD06B00000C4B1B78D0
:10062C00062B10D10B4B1B681A070CD10A4B186800
:10063C0000F0F003302B08D000F0E000A0F14003F4
:10064C00584258417047002070470120704700BF46
:10065C00E00F00F0E40F00F0E80F00F0094B1B78FE
:10066C00062B0CD1084B1B681A0708D1074B1868CE
:10067C0000F0F000A0F130035842584170470020C0
:10068C00704700BFE00F00F0E40F00F0E80F00F03F
:10069C0008B5FFF7C3FF28B1784B794A1B68C3F341
:1006AC0004231360FFF7DAFF10B1764B764A1A6019
:1006BC00FFF7B4FF28B1754B754A1B68C3F342337F
:1006CC001360FFF7CBFF20B1724AD36823F080731D
:1006DC00D360FFF7A3FF40B14FF080430022C3F873
:1006EC000C21C3F81021C3F83825FFF7B7FF10B160
:1006FC00694B03221A60FFF7B1FF40B1674B05222B
:10070C001A6001229A6700229A603F225A60644B59
:10071C001B78062B50D1634B1B6819074CD1624BCD
:10072C001B6803F0F003502B46D14FF080525F4B07
:10073C00D2F80414C3F82015D2F80814C3F8241501
:10074C00D2F80C14C3F82815D2F81014C3F82C15D1
:10075C00D2F81414C3F83015D2F81814C3F83415A1
:10076C00D2F81C14C3F84015D2F82014C3F8441561
:10077C00D2F82414C3F84815D2F82814C3F84C1531
:10078C00D2F82C14C3F85015D2F83014C3F8541501
:10079C00D2F83414C3F86015D2F83814C3F86415C1
:1007AC00D2F83C14C3F86815D2F84014C3F86C1591
:1007BC00D2F84424C3F87025FFF730FF28B13C4B26
:1007CC003C4A1B6803F04F031360FFF727FF48B147
:1007DC004FF08043D3F80024D20744BF6FF00102DE
:1007EC00C3F80024344B1B68062B08D1334B1B6811
:1007FC00062B01BF324A136843F4806313604FF039
:10080C001023D3F80022002A03DBD3F80432002B88
:10081C002FDA2C4B0122C3F80425D3F80024002A2C
:10082C00FBD04FF010221521C2F80012D3F800248F
:10083C00002AFBD04FF010231522C3F80422214BC1
:10084C001A46D3F800140029FBD00021C3F8041574
:10085C00D2F80034002BFBD0BFF34F8F1A491B4B3F
:10086C00CA6802F4E0621343CB60BFF34F8F00BF42
:10087C00FDE7174B174A1A6008BD00BF2403001090
:10088C004035014074C007400DF0ADBA4402001071
:10089C003C050040F0ED00E0A00500401056004083
:1008AC00E00F00F0E40F00F0E80F00F000C0004093
:1008BC0058020010E40E004030010010340100100A
:1008CC003C17004000E0014000ED00E00400FA0598
:1008DC00AC1C00200090D00313B5044603F0B0FF0D
:1008EC00C0F307230193C0F307430093044A030E9C
:1008FC000021204604F0ACFD002002B010BD00BF6A
:10090C000771000010B5044605F0C9FF034A034601
:10091C000021204604F09CFD002010BDF870000062
:10092C0010B5044601F0DEFD034A034600212046C3
:10093C0004F08EFD002010BDE2700000F8B50B4AEB
:10094C000B4C0C4D0C4F0021064604F081FDAC42C3
:10095C0001D10020F8BD636833B123683A461B68A7
:10096C000021304604F074FD0C34F0E7BD7100003A
:10097C00381D0020B01D0020C7710000F8B50C4BCD
:10098C000C4F53F821400131064653F821500020FA
:10099C00A54200D8F8BD63683BB1236830461B689C
:1009AC003A46002104F054FD01200C34F0E700BF5E
:1009BC00786C0000C771000010B51F4A0446002176
:1009CC0004F046FD02212046FFF7D8FF014618B976
:1009DC001A4A204604F03CFD194A0021204604F036
:1009EC0037FD03212046FFF7C9FF014618B9134A0A
:1009FC00204604F02DFD134A0021204604F028FD6A
:100A0C0000212046FFF7BAFF014618B90B4A2046D1
:100A1C0004F01EFD0C4A0021204604F019FD0121B2
:100A2C002046FFF7ABFF014618B9044A204604F0F4
:100A3C000FFD002010BD00BF7B710000897100000C
:100A4C00917100009F710000AE71000037B5836892
:100A5C00D3F85822520604460D4608D5B3F858224E
:100A6C00C0686FF38612A3F8582205F0ECF9E3681E
:100A7C00DB6863B99DB3A068383004F0B9FCA36897
:100A8C0078B303F1380103F59C7005F009FBA268FB
:100A9C00E0680DF106033832294605F0D7F958B94C
:100AAC00A06800F59C71383005F0FAFAA06838306F
:100ABC0004F09EFCADF80600204604F096FF0A4AAE
:100ACC000A49606904F09AFC204600F085FEA36890
:100ADC00BDF806209A865A86204600F03FFE03B0E9
:100AEC0030BD83F83801D2E723720000027E00008B
:100AFC002DE9F04F9DB004460023039304F07BFFD7
:100B0C00204604F000FF18B98D49606904F076FCAA
:100B1C00A06814220021083005F04DFB204604F09B
:100B2C0099FEA168E0684A8E383105F0C6F9204676
:100B3C0005F048FAA2680C2338320FA904A804F077
:100B4C001EFD049A03462AB96FF0070528461DB00E
:100B5C00BDE8F08F28B17B4A0221204604F0E4FF67
:100B6C00F2E70546074681468246064683463EE046
:100B7C00754958F8340C05F0B2FA002845D058F8ED
:100B8C00342C5946204601F0CFF9022828D1B9F16E
:100B9C00000F09D0204605F037FAA2680C23383232
:100BAC000FA904A804F0EBFCA0684369002B40F0EB
:100BBC008F80002DC8D0C3689D420CD00B9500F1DE
:100BCC00080503E0A3680B9503F108050AAE0FCEE8
:100BDC000FC533682B60204604F01DFC0125B5E7DA
:100BEC0003281AD00136B8464FF001094746049B3A
:100BFC00B342CCD98EB11CAB03EB8608534958F8E1
:100C0C00340C05F06CFA0028B2D1002DDAD1504A20
:100C1C000221204604F088FF96E705AB019303AB55
:100C2C0007F10108009332463B465946204600F036
:100C3C0043FDB8F1000F01D0039B83B9002EA6D160
:100C4C00A368DB6913B1DB68002BA0D1414B009387
:100C5C00414A0F9B0221204604F066FF74E7196895
:100C6C001CAB03EB860353F8340C05F038FA002860
:100C7C00BCD1039FFB68BBB1B9F1000F07D0204674
:100C8C0004F0B9FE204600F069FD344AC0E7A368C1
:100C9C00BE4603F1080CBEE80F00ACE80F00DEF80E
:100CAC000030CCF80030B246D7F804C0BCF1000FCD
:100CBC0008D0BE46BEE80F000AAD0FC5DEF8003006
:100CCC002B6065460136D7F808B04FF000088DE769
:100CDC00049D037EA5EB0A058BB19D42427E02D397
:100CEC0013449D420BD983681D4A0221204604F00F
:100CFC001BFF204604F08FFB6FF0150526E700F56F
:100D0C003B7003F0DFF9A368B3F8582242F080027D
:100D1C00A3F858220FAA29465B6902EB8A022046E7
:100D2C0098470546A068B0F858326FF3C713A0F87F
:100D3C0058324FF0FF3100F53B7003F053F905E7E3
:100D4C00D472000030720000477200004472000040
:100D5C004E7200006C72000058730000807200002C
:100D6C00AF7200002DE9F04104464068374A1F4637
:100D7C00036886B01D682346A8470646002861D143
:100D8C0001464FF44172A06805F015FAA368226879
:100D9C001A60E06805F0FCF8A06800F53B7005F0FF
:100DAC0008FC4FF427784FF41775A068284405F019
:100DBC0005FEA0680022431901214044103503F0C0
:100DCC0033FEB5F5277F08F11408EED1A369002591
:100DDC001D60A368B3F85822186842F01002A3F8FB
:100DEC005822B3F8582242F00402A3F85822B3F860
:100DFC00582242F02002A3F8582201221A71144AF8
:100E0C009A6204F0F5FAA36883F82C00A268B2F891
:100E1C00583243F00203A2F858320E2303930C9B72
:100E2C000094CDE90173D4E909010A4BCDE90455CD
:100E3C004FF4006203F07AFCA368216AC3F8000344
:100E4C0005F0BDFC304606B0BDE8F0814954000009
:100E5C0018005000D915000083681B79012B10B5C0
:100E6C0004460BD1002100F0BFFC0649606904F078
:100E7C00C5FA204604F0D8FA002010BD6FF022000D
:100E8C00FBE700BFD37200002DE9F04F8368BFF37E
:100E9C005B8FADB0044603F5167353E8002F42F098
:100EAC00080243E800210029F7D1BFF35B8FA36848
:100EBC001B79022B40F0778300230B936068036847
:100ECC0001221D690DF12B010BABA8470B9B002BCD
:100EDC0000F069839DF82B100806EFD4A0684379C5
:100EEC00022B00F25E83DFE813F00300CE02F30264
:100EFC000D291BD00A2919D0B0F858326FF30F23E3
:100F0C00A0F85832092955D03AD80029D6D008294A
:100F1C0000F01C82A1F120035E2B00F22682B0F8B7
:100F2C00583243F04003A0F858321FE1D0F8583241
:100F3C0013F47F4F05D0D0F85832C3F307239942EE
:100F4C00E0D1B0F8583261F30F23A0F85832438E39
:100F5C0093B9C26982B9B0F8583262F38613A0F81B
:100F6C005832E06804F06FFF8549606904F046FA76
:100F7C00204604F059FAA1E72046FFF7B9FDF7E740
:100F8C001B2914D07F29C5D1D0F858325F0795D5CD
:100F9C00B0F8583243F04003A0F85832D0F8583229
:100FAC009E0600F1DE81204604F0FFFD86E701235A
:100FBC00437183E7D0F85832C3F38009B9F1000FBD
:100FCC003FF47CAFB0F8583243F04003A0F85832ED
:100FDC00438EFF2B3FF472AF828E00F1380100F587
:100FEC009C7005F0BEF8A268938E1344002183F820
:100FFC00381102F59C720C231FA90DA804F0BFFA3E
:10100C00A3689A8E134493F83730202B54D0093BA5
:10101C00042B8CBF002301230D9919B1002B4ED149
:10102C0001294BD100250C950C9B2CAA02EB8303B8
:10103C00002653F834AC504604F0DAF9B04604906C
:10104C0005960396B3461AAF002D45D0A9682B1C04
:10105C0018BF0123CDE9017315AB0093029A4346E7
:10106C00204600F029FB159B002B39D0186800286E
:10107C0034D0DA68002A31D19B68B3FA83F35B0968
:10108C00049A0293514605F036F8029B034310D1A3
:10109C00159B186805F01CF8059B834238BF034666
:1010AC009BB205930136BBF1000F02D1CDF80C8039
:1010BC00CB4608F10108C7E70123ADE7013900234E
:1010CC00019310AB00931FAA0CAB204604F043FB1A
:1010DC0005460028A8D1F1E62946B8E70023CFE75A
:1010EC00012E4FD10C9B2CAA02EB830353F8340C2A
:1010FC0004F07EF9064605B1AD68A3680833CDE966
:10110C0000732946DDE90223204600F0D5FA1A9B2C
:10111C00186804F06DF9864207D01A9B1968821B77
:10112C0092B23144204604F03EFDA3689A8E1A44D4
:10113C0092F83820202A1DD0093A042A1AD9D3F85B
:10114C005822D20711D5B3F858226FF30002A3F836
:10115C0058222021204600F00FFCA268B2F8583229
:10116C0043F00103A2F85832A8E62021204600F0F3
:10117C0003FCA3E60121204604F0D9FB9EE600BF48
:10118C00D472000006937FF699AE0C9ADFF83C837C
:10119C002CAB03EB820252F8343C0493184604F057
:1011AC0027F9A268069BDDF80C900890138606962A
:1011BC00002D7BD0A968A368029A083301931AAB5F
:1011CC00009320464B4600F077FA1A9B186809F1F9
:1011DC00010900286CD11A9BD3F800A0BAF1000FBA
:1011EC0076D1A368A3F830A0069B013B0693DFD110
:1011FC00B049606904F002F9204600F0EFFB0C9B4B
:10120C002CAA02EB830353F8340C04F0F1F8039B83
:10121C00804603F10109002D00F09280A96815ABFE
:10122C0001930EAB00932046DDE9022300F044FA53
:10123C000E9BD3F800A04FF6FF77002D00F08480B2
:10124C00A968029A1AAB01930FAB009320464B4648
:10125C0000F032FA0F9B09F1010BDBB10E9A186802
:10126C001168002211F802C0835C634505D123B1DB
:10127C0001324FF6FF739A42F4D1B8F1000F01D04E
:10128C0042455FDB974206F1FF36A8BF1746012E99
:10129C00BFB257D1002F3FF411AEA7EB080292B2A8
:1012AC000AEB0801204604F07EFC07E6294682E79B
:1012BC00DA681AB99B68002B3FF47AAF049B002BB9
:1012CC0089D0089A049904F016FF002883D06FE7A0
:1012DC00404604F08DF8059B1844A3681FFA80FB68
:1012EC0040465F8D04F084F80990504604F080F875
:1012FC00ABEB000083B2A1680793099B0A8EFF1A1F
:10130C0097FBFBFB1FFA8BFB501CB2FBFBF30BFB9D
:10131C00132292B2088662B9CDF800A04346664A01
:10132C000721204604F000FC0799204600F006FA3D
:10133C005AE75346614A0721204604F0F5FBF3E7D0
:10134C0029466CE7D94678E729467AE7D0F858322F
:10135C005B077FF5B3ADB0F8583243F04003A0F80B
:10136C005832204604F03CFCA8E5D0F858325D0712
:10137C007FF5A4AD013916293FF6A0AD01A353F8B2
:10138C0021F000BF79150000ED130000F5130000EB
:10139C00B30F00006D1500001B140000C90E0000F7
:1013AC00C90E0000C90E0000C90E00002314000075
:1013BC002B140000C90E000047140000C90E0000D9
:1013CC0051140000C90E0000C90E0000C90E000027
:1013DC00C90E000055140000C90E00008114000055
:1013EC00204604F00FFB69E5204604F004FB204680
:1013FC0004F089FA18B92F49606903F0FFFFA2685D
:10140C00B2F8583243F04003A2F85832B0E5204607
:10141C0004F000FB52E5204604F005FB4EE5606944
:10142C00274A264903F0EAFF6069264A234903F05C
:10143C00E5FF204600F0D2FA40E500212046FFF7F8
:10144C0005FB3BE50121F9E7204604F0CEFAA36841
:10145C001A49002283F838209A865A86A268B2F874
:10146C00583243F04003A2F858326069164A03F030
:10147C00C5FF23E5204600F001FAA268B2F8583205
:10148C0043F040036EE65B2901D1022390E5D0F8CE
:10149C005832580706D5622908D14FF0FF31204643
:1014AC0004F069FAA36800225A7107E56629F9D19C
:1014BC000121F4E7D4720000CD720000027E00001E
:1014CC00277200002B72000023720000CA72000009
:1014DC0000234371D0F858325A077FF5EFAC3139FD
:1014EC001B293FF6EBAC01A353F821F07515000056
:1014FC00811500009F15000069150000C90E000041
:10150C00C90E0000C90E0000C90E0000C90E000073
:10151C00C90E0000C90E0000C90E0000C90E000063
:10152C00C90E0000C90E0000C90E000051140000C5
:10153C00471400001B140000ED130000C90E00003E
:10154C006D150000C90E000079150000C90E0000D1
:10155C00C90E0000C90E000085150000032343715D
:10156C00204604F048FAA9E403234371204604F012
:10157C003CFAA3E403234371D0F85832B0F8582254
:10158C0003F0010383F0010363F30002A0F8582277
:10159C0094E403234371D0F858325B077FF58EAC8B
:1015AC0001E5002304E5A368BFF35B8F03F5167315
:1015BC0053E8002F22F0080243E800210029F7D15C
:1015CC00BFF35B8F2DB0BDE8F08F00BF37B504467D
:1015DC004068036800219B689847D0B92046FFF704
:1015EC003BFCB0B9A06803214FF0FF3200F5277027
:1015FC0003F02EFA0546A0684FF0FF3100F53B7062
:10160C0002F0F0FC3DB12B46204A0221204604F0AA
:10161C008BFA03B030BD606803685B6903B198470F
:10162C00A56801AA694605F51F7005F0CCF9009B69
:10163C00B3B10023C5F88432A368D3F858321B0722
:10164C000AD4606803685B689847054620B9E0686F
:10165C0004F027FCA3681D7103F026F801F02CFAA6
:10166C00A56801AA694605F5177005F0ACF9009B51
:10167C002BB10023C5F864322046FFF705FCA068A7
:10168C0000F53B7002F01EFDACE700BFD672000007
:10169C0010B5044613460A460146064801F0F2FA14
:1016AC0023691B7923B12046BDE8104003F0FFBE2F
:1016BC0010BD00BFD354000070B5DDE90446002016
:1016CC00206052B90F48104A121AB3EBD20F03D252
:1016DC0000EBC3035B68236070BD0029FCD00A7863
:1016EC004D683AB118463146A8473368002BF3D001
:1016FC002660F1E714225343EA18EB58002BEBD089
:10170C002260E9E7986B0000D06B0000014A0249A7
:10171C0004F0D8B8ED720000027E000059B1002927
:10172C0081EAE172A2EBE172CCBF41234223024970
:10173C00406904F0C7B87047FB72000059B100292A
:10174C0081EAE172A2EBE172CCBF4323442302494C
:10175C00406904F0B7B87047FB72000010B504463E
:10176C0004F0D1F828B160690549BDE8104004F0D7
:10177C00A9B804F1080004F0B2F80028F3D110BDA8
:10178C00D47200002DE9F0410646054656F8084F84
:10179C0004F12000628EA18E03F0DBFE3046B4F81B
:1017AC002480E78C04F09BF818B10A49686904F0AE
:1017BC0089F8B84507D1218C638C2846C91ABDE835
:1017CC00F041FFF7BBBFE18CA38C2846C91AFFF789
:1017DC00A5FFF0E7D47200008268024940693832F4
:1017EC0004F070B8027E0000836807B593F82E20D1
:1017FC008A4212D083F82E10406989B1094B0093AC
:10180C0033238DF804302F316D238DF80510ADF88E
:10181C0006306A46044904F055F803B05DF804FB41
:10182C00024AF7E71B5B313B027E0000F7720000B7
:10183C0037B50D4609780446FFF7D6FF6B78CBB168
:10184C00A26892F82F10994214D045F61B31ADF8CE
:10185C00001034218DF8021003F12F018DF80310C4
:10186C006D21ADF8041082F82F30034960696A4687
:10187C0004F028F803B030BD027E0000F8B5836890
:10188C005A8E0546002A46D0988E002843D0373011
:10189C00184403F138060346C41AB342A4B21946DD
:1018AC000DD311F80179202F33D01946013B08785C
:1018BC00202804D001349E42A4B21946F5D9631CE9
:1018CC004E1C121B1944304604F034FCA9684A8E95
:1018DC00121B92B24A860A440027614282F8387081
:1018EC00284609B204F023F868690B4A0B4903F047
:1018FC00E9FF39463346094A284604F015F9686968
:10190C00FFF704FF6869064A0449BDE8F84003F094
:10191C00D9BF0B46C0E7F8BDF1720000027E000093
:10192C00F472000070B504460D46164612B14069BB
:10193C00FFF7ECFEA268938E3833134420460C4A12
:10194C00002104F0F1F8204650F8083F5A8E9A8690
:10195C0003F0C5FF28B106B11DB10649606903F05B
:10196C00B1FF6942204609B2BDE8704003F0DFBF09
:10197C00027E0000D472000013B583688DF8071046
:10198C00D3F85822D20704461DD5998E5A8E8A4216
:10199C0019D0481C98860B449DF8072083F83820F2
:1019AC00A368D3F858325B070BD56069094903F07B
:1019BC0089FF204603F0A7FF18B10749606903F0BF
:1019CC0081FF02B010BD01220DF10701204604F089
:1019DC00B8F8F6E7FF720000D472000083680A4A78
:1019EC001B6810B50446032104F09EF8A368D3F8D5
:1019FC0058325B0707D52046FFF7EEFE2046BDE8C0
:101A0C001040FFF7BFBE10BD027E000013B50748A3
:101A1C0002F07AF900240123014600941A46044886
:101A2C00FFF7A0F9204602B010BD00BF0273000002
:101A3C00E06C0000406810B50C4601688B60636870
:101A4C00C1E900422BB19B6C1BB1024604492046F4
:101A5C00984763689B6A0BB120469847002010BDDD
:101A6C00AF5C00002DE9F047054690460F46002973
:101A7C006ED000243B5D202B25D0093B042B22D9B2
:101A8C00DFF8D090384604F023FBAB68598D80B258
:101A9C00001BA1EB0803984207EB040A15D950462A
:101AAC00002610F8012B202A06D0A2F1090CBCF15B
:101ABC00040F02D80A2A31D0334608EB06029142B1
:101ACC002BD90136EDE70134D4E753460026B0425A
:101ADC0017D013F8012B0A2A04EB06091BD16869ED
:101AEC0003F0E5FC32465146284603F0C0FF194985
:101AFC00686904F042F94146284609F10104FFF7F0
:101B0C001DFE3919686904F038F968691149BDE896
:101B1C00F04704F032B90136D9E71E46686903F084
:101B2C00C6FC32465146284603F0A1FF34443B5DC7
:101B3C00202B0BD0093B042B08D94946686904F0CB
:101B4C001CF941462846FFF7F9FD9BE70134EEE707
:101B5C00BDE8F087D47200002DE9F04F82688DB09B
:101B6C001269002304460693002A51D098461D465C
:101B7C0007AE06AFCDE90076A1684346012209699C
:101B8C002046FFF799FD069B08F10109002B3CD07C
:101B9C00186810B104F09CFA80B2854238BF054633
:101BAC00B8F1FF3F2FD1204ADFF88090002120466A
:101BBC0003F0BAFF0023CDE90076A1680122096980
:101BCC00204603F1010BFFF777FD069B03B31A6860
:101BDC0016480592D3F8048004F07AFA059A8246E6
:101BEC007AB1CDE9012900954B46114A00212046D6
:101BFC0003F09AFFB8F1000F0DD10E49606904F0A3
:101C0C00BCF85B46D7E7C846B4E7B9F1010FCAD1B7
:101C1C000DB0BDE8F08F6A1C02EB4A0292B241464D
:101C2C002046FFF71FFFECE721730000397300001B
:101C3C002F730000D4720000836873B50546986852
:101C4C00C8B104F045FA84B20C4E304604F040FAA8
:101C5C00AB68009604449B68094A2846002103F0AF
:101C6C0063FFAB68A4B2D9682246284602B0BDE82F
:101C7C007040FFF7F7BE0446E6E700BF1D73000097
:101C8C00CE72000038B5074D074A04462946406914
:101C9C0004F0BAF86069054A294604F0B5F800204A
:101CAC0038BD00BF027E0000427300004673000086
:101CBC0010B50446044A0549406904F0A5F8A36828
:101CCC00034A9A62002010BD4B730000027E000094
:101CDC001800500008B58369034A1B68002103F003
:101CEC00B7FB002008BD00BF8475000010B5064A84
:101CFC000446002103F0ACFB2046044A002103F00B
:101D0C00A7FB002010BD00BF897300007874000091
:101D1C00F0B5104F85B004460025A268E0680DF1BF
:101D2C000E0302F59C72012104F090F8BDF80E0030
:101D3C00A36858B103F59C7300936E1C2B463A466E
:101D4C000021204603F084FB3546E6E783F8380192
:101D5C0005B0F0BD40750000022907B50CD15368E1
:101D6C0001930D4B009313680C4A03F071FB6FF059
:101D7C00150003B05DF804FB8368094AD3F85832A8
:101D8C0013F0040F4FF00001064B18BF1346064A20
:101D9C0003F05EFB0020ECE75E730000557300005F
:101DAC00687100005173000073730000F0B50129D5
:101DBC0085B005460DD053680193534B00931368BF
:101DCC00524A022103F044FB6FF01504204605B083
:101DDC00F0BD4F4A4F49406904F016F86FF0F90115
:101DEC002846FFF79BFCFA212846FFF7A7FCA868BA
:101DFC0000244FF48072214600F59C708DF80B4046
:101E0C0004F0D9F94449686903F0FEFF686903F0EE
:101E1C004EFB4FF47A766868036801221F690DF156
:101E2C000B0103ABB847039B53B9013E4FF47A70D7
:101E3C00B6B204F0C2FC002EEDD16FF0220431E0FA
:101E4C009DF80B30AA681B2B53D092F838111B2924
:101E5C00E1D1522B4DD11444002384F8383192F83F
:101E6C0039115B294DD102F59D701F46022610F8E1
:101E7C00011B01363B29B6B226D1B6F5807FDCD0EA
:101E8C0006F59C701044002310F8014B34BBFA2B60
:101E9C0028BFFA23FA2F53853B4628BFFA2382F832
:101EAC00384113851D4A1B49686903F0ADFF002CAE
:101EBC008CD0AB681A4A9A6204211A4A284603F05D
:101ECC00C7FA6FF0070481E707EB870301EB4303C5
:101EDC00303BB6F5807F9FB2C9D1AEE703EB8303ED
:101EEC00013604EB4304B6B2303CFF2EA3B2CBD97F
:101EFC00A3E711190134A4B2092C81F838318AD91D
:101F0C00002382F8383198E75E73000055730000A7
:101F1C003C730000027E0000847300003F730000DD
:101F2C00180050004A7500002DE9F04F824689B028
:101F3C0016468B4621B90324204609B0BDE8F08F24
:101F4C00104604F02BF80028F5D00025019502244A
:101F5C009BF80020DBF8043068428AB103A998474B
:101F6C00039B002B5BD1019B002BE5D0DAF808001A
:101F7C00324600F1360100F59C7003F0C5FBDBE73F
:101F8C006FF013026A4303EB02089B58002BEAD054
:101F9C000022D8F80010304603F027FA80BBD8F89E
:101FAC000090DAF80870B9F1000F2CD0484604F014
:101FBC008FF884B2FB8E01332344B3F5807F24DC8D
:101FCC00314607F59C7004F04EF8804628B304F0B7
:101FDC007FF882B2601C01324146404404F0AAF8FA
:101FEC0022464946404604F0BCF8202308F8043049
:101FFC00FB8E1C44019B01340133FC8601930024AD
:10200C00013DA5D1AFE74C46D4E73346054A042140
:10201C00504603F089FD0124A5E70224A3E70DF146
:10202C000C08B5E7677900000A2838B50446074D57
:10203C0004D1286843680D215B6898472868436879
:10204C00E1B25B689847204638BD00BFB003002062
:10205C0010B5044C204601F0CDFA2046BDE81040E6
:10206C00FEF7A6BA3520000008B5044801F04CFE76
:10207C00034B1860FFF7ECFF002008BD0273000053
:10208C00B003002010B54FF02003EFF3118283F35F
:10209C001188BFF36F8F154C237833B982F31188F5
:1020AC00BFF36F8F6FF0440010BD013BDBB22370A8
:1020BC0033B182F31188BFF36F8F6FF00F00F3E72A
:1020CC000B4B1878012138B1217082F31188BFF3C2
:1020DC006F8F6FF00A00E7E7197082F31188BFF376
:1020EC006F8F044A11601870DEE700BF6005002096
:1020FC005F05002004000040F8B54FF02002EFF31C
:10210C00118382F31188BFF36F8F294A1078441C16
:10211C00147080B183F31188BFF36F8F4FF080433D
:10212C00D3F80C3403F00113B3F1011F0CBF0020E2
:10213C006FF0430009E01F4D2F783FB1107083F30F
:10214C001188BFF36F8F6FF00A00F8BD01262E7057
:10215C0083F31188BFF36F8F4FF0804419B3384667
:10216C0000F050FAC4F80071D4F80433C4F80463D6
:10217C002660D4F8002192B10022C4F800210E4A46
:10218C0013F0010F4FF0010308BFC4F8083300200F
:10219C00C2F8803100F026FA00232B70BEE720BF76
:1021AC0040BF20BFE5E7C4F800112660F4E700BF8C
:1021BC00600500205F05002000E100E070B54FF0E5
:1021CC002002EFF3118382F31188BFF36F8F244D3C
:1021DC002A789AB183F31188BFF36F8F4FF0804246
:1021EC00D2F81C34D2F8182403F0030343F48033E0
:1021FC00934314BF6FF04300002070BD01242C707A
:10220C0083F31188BFF36F8F4FF08043154EC3F8E3
:10221C0004210225C3F81815C3F8045311F0030167
:10222C0034604FF01806C3F80863C3F80C21C3F8E8
:10223C001021D3D11022C3F83825C3F80463D3F886
:10224C001824D20302D4C3F80453C7E7C3F80443D9
:10225C00FFF752FF0028C1D1034BC3F80041BDE783
:10226C005E0500200800004000E100E0F8B54FF0EA
:10227C0080430546D3F808C1D3F80423D3F8007182
:10228C00D3F80403D3F80461D3F80C11D3F810413C
:10229C00003402F0010218BF0124BCF1000F03D07E
:1022AC004FF0000CC3F808C1002F41D04FF0804311
:1022BC000027C3F8007152B14FF08043224F012226
:1022CC004FF0020CC3F80823C7F800C01A61EEB92E
:1022DC0059B11D4B4FF08046002119602846C6F8B5
:1022EC000C11FFF7CFFE0123736174B14FF08043E3
:1022FC0000210124C3F810112846C3F80443FFF74A
:10230C00FBFE10B9114BC3F80041F8BD4FF08043F0
:10231C000022C3F804218207DAD50222C3F808236D
:10232C00D3F81C349B07D3D10029DFD00124D0E78C
:10233C00002ACCD04FF08043D3F80C3403F00113B7
:10234C00B3F1011FC3D1B7E7340C004000E100E04A
:10235C000D4B0022C3F840214FF02002EFF3118106
:10236C0082F31188BFF36F8F084AD3F80405136802
:10237C00C01A20F07F400344136081F31188BFF32F
:10238C006F8F02F0DDBA00BF00100140B4030020D3
:10239C0073B51C4801F0B8FC80B343681A4D1B6838
:1023AC0001219847012600244FF48033C5F80845D5
:1023BC00C5F84065C5F8043303F1804303F58A532F
:1023CC004FF400321C601B680193019B0F4B31468C
:1023DC00C3F880211120224600F028F9112000F0CA
:1023EC0001F90B4B1E602E60D5F80435334423F0F5
:1023FC007F43C5F84035204602B070BD4FF0FF302A
:10240C00FAE700BFB97900000010014000E100E0DC
:10241C000810014070B5214EB0F1FF3F08BF3046A7
:10242C004FF02003EFF3118483F31188BFF36F8F08
:10243C001B491C4BD1F804251D68531B23F07F430B
:10244C00013501382B4420EAE070B042D4BF181893
:10245C009819821A22F07F4220F07F43022AC1F899
:10246C00403504D984F31188BFF36F8F70BDD1F858
:10247C0004350D4AC31A23F07F435D1E954205D9DE
:10248C000A4B4FF40032C3F80021EBE7012B02BFDB
:10249C00023020F07F40C1F84005E3E7FEFFFF006B
:1024AC0000100140B4030020FEFF7F0000E100E0BB
:1024BC004FF02002EFF3118382F31188BFF36F8F7B
:1024CC00064AD2F80405064A1268801A20F07F40AA
:1024DC0083F31188BFF36F8F704700BF001001406A
:1024EC00B40300204FF02003EFF3118283F3118823
:1024FC00BFF36F8F0649074B0868D3F8043582F396
:10250C001188BFF36F8F1B1A23F07F431844704759
:10251C00B40300200010014004488168406A8842DE
:10252C0003D003494FF080520A607047B804002072
:10253C0004ED00E0094A0A4993680968996609495B
:10254C0058664B6843F080534B60002383F311882B
:10255C00BFF36F8F9368986E704700BFB80400206C
:10256C00F46F000000ED00E013498A684FF028007A
:10257C001044EFF3098C80E8F01F202080F31188C1
:10258C00BFF36F8F0D4F4FF000664A6A8A603E6052
:10259C00506E0023536680F3118804B5064880689A
:1025AC0003F059FDBDE8044002F1280090E8F01F4B
:1025BC008CF3098870470000B804002004ED00E09B
:1025CC001EF0040F0CBFEFF30880EFF30980816954
:1025DC0031F8021C11F0FF010229FFD001B503F004
:1025EC002FFD01BD43B2002B08DB012200F01F00C0
:1025FC0002FA00F05B09024A42F82300704700BF60
:10260C0000E100E043B2002B0DDB01225B0900F07E
:10261C001F0002FA00F02033034A42F82300BFF3F4
:10262C004F8FBFF36F8F704700E100E043B2002B78
:10263C00A8BF03F1604301F101014FEA4111AEBFA4
:10264C0003F5614300F00F00034BC9B2ACBF83F834
:10265C0000131954704700BF14ED00E02DE9F04150
:10266C008C18884617461E4604220A9B0999054673
:10267C0004F0C9F8A4F120030C4923F0070300224D
:10268C0021F00101C5E91322C5E916879961069964
:10269C005960079999600899D9604FF080711E6054
:1026AC00D961AB646A66BDE8F08100BF014D0000E2
:1026BC00014910220A60704710ED00E0404080F3A1
:1026CC00118830BF704700BF404080F31188DFF89D
:1026DC001CC0DCF800C01CF4006C0CBFEFF30880CD
:1026EC00EFF3098001B500F05DF901BD04ED00E0E8
:1026FC0038B505460C4699B1D1E901230B48096858
:10270C0001F028FBD4E90423E168094801F022FB1D
:10271C00E169084801F01EFBA169074801F01AFBAA
:10272C0021462846BDE8384001F038BBD779000077
:10273C00067A0000357A0000447A000030BFFFF7BB
:10274C00FDBF00BF08B5084B084A23F07F03936018
:10275C00BFF34F8FBFF36F8F01F06EFB01F076FB71
:10276C0000F09EF901F0A4FB0000000000ED00E079
:10277C0001B572B60B4A106A00281EBF0021116207
:10278C0003F015FF62B6EFF30580A0F110004FEADD
:10279C00C0000549014409C99847BDE801400348F8
:1027AC0000470000B8040020E8690000252500005F
:1027BC0002F0E7FC202080F3118808484FF40061F8
:1027CC00401880F30988EFF314800221084380F34A
:1027DC001488BFF36F8FFFF7B5FF0000A81200201D
:1027EC0070B51D4C06461D480D4601F0B3FAA26AA1
:1027FC00D10602D51A4801F0ADFAA36A1A0702D520
:10280C00184801F0A7FA144CA36A9B070ED516487A
:10281C0001F0A0FA616BA36A180607D5134801F002
:10282C0099FA1EB1A36A23F08003A3620A4CA26A30
:10283C00D20702D50E4801F08DFAA36A9B0602D589
:10284C000C4801F087FA044B9A6A9A6A002042F00D
:10285C00FF029A62287070BD00ED00E0FA7A000069
:10286C00107B0000437B0000567B00006E7B000059
:10287C00847B0000A37B000070B51F4C06461F48EC
:10288C000D4601F067FAA26AD10402D51C4801F08A
:10289C0061FAA36A1A0502D51A4801F05BFA164CC4
:1028AC00A36A9B050ED5184801F054FAA16BA36AD4
:1028BC00180407D5154801F04DFA1EB1A36A23F48C
:1028CC000043A3620C4CA36A590502D5104801F0D1
:1028DC0041FAA36ADA050AD50E4801F03BFA064A1A
:1028EC00936A002043F47F439362287070BDA36AFF
:1028FC009B04F4D50848F0E700ED00E0727A000084
:10290C00887A0000437B0000997A0000B27A0000BC
:10291C00C77A0000E27A0000A37B000010B5194CC6
:10292C00194801F017FAA26A930102D5174801F071
:10293C0011FAA36ADC0102D5154801F00BFA114C0F
:10294C00A26A100302D5134801F004FAA36A5903D2
:10295C0002D5114801F0FEF90A4CA26A920302D585
:10296C000E4801F0F7F9A36ADB0302D50C4801F01D
:10297C00F1F9044A936A6FEA03436FEA13439362D3
:10298C00002010BD00ED00E0D27B0000EA7B0000CF
:10299C00FD7B0000177C0000357C00005A7C000099
:1029AC00747C000073B52F4D6968C1F308020023D5
:1029BC000646D01E8DF807301C46092846D8DFE89D
:1029CC0000F0053B3F2F454545454543264801F062
:1029DC00C1F98DF80740EC6A14F0020404D02348C6
:1029EC0001F0B8F900241EE0EB6A5B001BD520480F
:1029FC0001F0B0F91F4B1B782BB10DF10701012031
:102A0C00FFF7EEFE0EE01C4B1B782BB10DF107010E
:102A1C000120FFF731FF05E0184B1B889BB213B167
:102A2C00FFF77CFF04469DF807301BB93146204662
:102A3C00FFF75EFE02B070BD0DF107010020DFE76D
:102A4C000DF107010020E4E70D48C9E70D4B0E48D6
:102A5C0011F4F87FA2F110020C4918BF194601F0CD
:102A6C0079F9BFE700ED00E0CD7C0000E47C0000CC
:102A7C00057D000028ED00E029ED00E02AED00E0E6
:102A8C00247D0000B47C00005A7D00009F7C000077
:102A9C00024A536943F010035361704700ED00E0A4
:102AAC00044800232021C2180133272B82F800137D
:102ABC00F9D1704700E100E038B505464FF020032E
:102ACC00EFF3118483F31188BFF36F8F03F07CFE57
:102ADC000A4B9B68AB420BD1094B5A68C2F30802F4
:102AEC0012B92046FFF726FD5A6842F080525A6010
:102AFC002046BDE8384003F09CBD00BFB804002060
:102B0C0000ED00E01FB5084B0193084B0293084BF6
:102B1C00039301AB0093074A074B0121684600F071
:102B2C0091F805B05DF804FB0000002000000000E7
:102B3C0000000B060000002000000120F0B5204F23
:102B4C0000268E4201DB1046F0BD50F826C0DCF8A2
:102B5C00044094B35BB104F1FF3E14EA0E0F1AD19A
:102B6C001F2C18D9DCF800501EEA050F13D1202CAD
:102B7C00DCF80050DCF808C0D2B20FD9B4F1004F29
:102B8C000ED8013CB4FA84F4C4F11F046400072A83
:102B9C004CEA040406D96FF01502D4E70824F6E7D2
:102BAC003E24F4E725F01F05154345F0100544F0CD
:102BBC000104BA60FD6001323C610136C1E700BF1F
:102BCC0090ED00E0034B05225A60BFF34F8FBFF32B
:102BDC006F8F704790ED00E0BFF35F8F014B0022C9
:102BEC005A60704790ED00E013490868082810B54A
:102BFC001ED8FFF7F1FF114C49680022904201F1F9
:102C0C000C0105D10E4B1870FFF7DCFF002010BD36
:102C1C00A26051F80C3C23F01F03134343F0100344
:102C2C00E36051F8043C43F0010323610132E5E712
:102C3C004FF0FF30EBE700BFD86B000090ED00E0E9
:102C4C006105002010B5034C01232278FFF776FFB5
:102C5C00207010BD6105002008B5084A00231278C9
:102C6C00FFF76CFF10F1160F03D0054B002207285D
:102C7C0000DD08BD98601A610130F8E7610500209D
:102C8C0090ED00E02DE9F04F9FB01E46002301901F
:102C9C0004910093134613F8010B059358B12528A2
:102CAC0000F085800499019B9847013040F00D8419
:102CBC004FF0FF33009300981FB0BDE8F08F232C2A
:102CCC006CD061D8002CF6D0202C0A9B08BF0123B5
:102CDC000A93CDF81480DDF81480B94818F8014B2C
:102CEC00214603F0E7F90028E9D12A2C66D156F8E1
:102CFC00043B0793002BBFBF5B42079301230B934D
:102D0C00059B98F8004003F102082E2C7CD198F812
:102D1C0000302A2B75D156F8045B08F1010818F81D
:102D2C00014BA8482146274603F0C4F900286ED071
:102D3C004346682F13F8014B059307D1682C05D136
:102D4C0008F1020398F8014005934827672C7CD8BA
:102D5C00652C80F03981472C5DD8452C80F034816E
:102D6C00002CA8D0252C00F0AC830499019B2520C5
:102D7C00984701309CD00499019B2046984701301C
:102D8C0096D0009B0233A2E32D2C0AD0302C0BD012
:102D9C002B2C099B08BF012309939AE70123069367
:102DAC0097E701230B9394E70123089391E7002302
:102DBC000893CDE909330B9306938CE7A4F1300308
:102DCC00092B0790A1D80A22DDF8148018F8014BC2
:102DDC00A4F13003092B98D8079BCDF8148002FB83
:102DEC000344A4F130030793EEE701FB0535303DB6
:102DFC009046424612F8013BA3F130000928F4D961
:102E0C008DE700250A21F4E74FF0FF3589E7CDF86F
:102E1C00148007469AE7632C5AD020D8582CA4D19A
:102E2C006F2C06F10409316840F01C83069B002BC3
:102E3C0000F00A8330238DF85C30002940F00F83BA
:102E4C008DF85D108846012626E0702C00F0E78294
:102E5C0028D86E2C00F0D082E2D8692C85D1346849
:102E6C00002C06F1040980F29C802D238DF85C3037
:102E7C0061420DF15D0630460A2203F0BEF9099B52
:102E8C00064417A8361A002B40F024830A9B002B0B
:102E9C0040F020834FEAD478002D22DA00252F460B
:102EAC00AA46E5E0752CBBD0782CB9D0732C7FF4F6
:102EBC005CAFB146002D59F8043BB8BF6FF000452C
:102ECC000026B54240F0BB822E460025A84609E0FC
:102EDC00B1464FF0000859F8043B8DF85C300126E0
:102EEC00454617AB05EB08020025921B2F46AA4658
:102EFC0022EAE27291190691079990190C1A0B9912
:102F0C0011B9002C00F3048303EB080B5B4540F074
:102F1C00018312F1FF3280F00D83A6EB0806BAF1A3
:102F2C00000F11D09BF800000BEB0608A0F130034A
:102F3C00092BA8EB0B0640F20883D04618F1FF389A
:102F4C0080F00C83A6EB0A06AFB10BEB06081BF85E
:102F5C0001AB0499019B5046984701303FF4A8AE51
:102F6C00BAF12E0FA8EB0B06F1D1B846B8F1000F51
:102F7C0000F3FD82F61B95B19BF800000BEB0608E5
:102F8C00A0F13003092BA8EB0B0640F2FB822E2894
:102F9C0000F0F8822F46002F00F3FD82761B5E4472
:102FAC000CE3099B23B12B238DF85C30214660E7A1
:102FBC000A9B0BB12023F7E7214617AE5BE700BF56
:102FCC006D7D0000737D000006F1070929F00709EB
:102FDC00F9E80223D80240EA5250D60220F0004011
:102FEC0002960390DDE90267002AC3F30A5173F1DC
:102FFC000003CDE9126743DA2D238DF85C300DF117
:10300C005D0740F2FF73994255D1DDE9022313436A
:10301C00A4F1410407F1030B42D1192C3AD84923EE
:10302C003B704E237B704623002517AEBB70FD70A2
:10303C00ABEB060B2F46AA46099B002B40F0D9811F
:10304C000A9B002B40F0D5819DF85C80A8F12D03E4
:10305C00D3F1000848EB03081EAB4344BB4413F800
:10306C001C3C303B0BEB0A06092B2E4400F237823A
:10307C00089B002B00F03682079B9A1B17AB37E797
:10308C00099B0BB12B23B8E70A9B0BB12023B4E7A8
:10309C0017AFB6E769233B706E237B706623C3E7DB
:1030AC00192C99BF4E2341226E23612294BF3B7091
:1030BC003B707A70B8E7029B03980B430C93CB17C9
:1030CC0003430D93DDE90C23462C08BF6624134300
:1030DC0000F0FF80002900F09F80139B43F0004319
:1030EC00A1F2FE381393002618F1020FC0F2A8804B
:1030FC006FF0004A4FF0000BB8F1000F00F3CC80DA
:10310C0012A808F1010803F09AF8B8F1040FF7D1EE
:10311C00002D04F0DF03B8BF0625472B40F0E180FB
:10312C00F21C02DBAE4240F3D780023CE4B2002D2D
:10313C0000F0DD80069B013D002B40F0D880002D77
:10314C00D4BF4FF000084FF00108662C40F0D1803E
:10315C0016EB050A40F1D5801023119366244FF02D
:10316C00000A00224FF00063CDE914231AF1FF3A54
:10317C0080F0C980129B149A15999B18139A41EBF5
:10318C000202CDE9123202F070430E9300230F932A
:10319C00DDE90E23134306D012A803F062F812A83F
:1031AC0003F04DF80136662C40F0C780002E40F33A
:1031BC00B180119B002B07DD11A912A803F07DF83B
:1031CC00013E07F8010BF4D1B246BB460026069B24
:1031DC0013B9002D40F3AF802E230BF8013B002ECA
:1031EC0000F0A780002D40F3A6807742AF42A8BF25
:1031FC002F46ED1B002D03DD119B002B00F391805E
:10320C00B8F1000F40F0AF80002317AE8BF8003000
:10321C00ABEB060B10E70139029BDB180293039B07
:10322C005B410393DDE90223002A73F10003F2DA18
:10323C00DDE90223CDE912234FE712A802F0FFFFCC
:10324C00DDE9122C4FF0000BB9480021594508BF9D
:10325C00604508F10108F0D30520A2FB002300FB18
:10326C000C33CDE91223DC46013E6FF0004A4FF0DF
:10327C00000B00218B4508BF9A4506D2BCF1000F0C
:10328C003FF432AFCDE912232EE792185B4108F1DF
:10329C00FF384FF0010CECE712A802F0E2FFDDE979
:1032AC00121008F1FF3801364FF0000C00239B453B
:1032BC0008BF824506D2BCF1000F3FF41DAFCDE92B
:1032CC00121019E74918404108F1FF384FF0010C72
:1032DC00ECE70026B04613E7069BAD1B23B966242A
:1032EC002DE74FF0000830E74FF0000830E74FF0C3
:1032FC00000805F1010A10239A451193A8BF9A46BC
:10330C002FE76624F7E714A802F0ABFF14A802F02D
:10331C0096FF2BE7BB4630230BF8013B4FF0000A1E
:10332C0055E711A912A802F0C8FF013D0BF8010BDB
:10333C0060E737465EE7002762E711A912A802F0A2
:10334C00BCFF069B3870302818BF06F1FF36002BE7
:10335C003BD1002D39DC07F1010BB8F1000F45D042
:10336C004FF0000A57465B461BF8012D302AFAD065
:10337C002E2A18BF9B46002504F0DF03452B7FF453
:10338C0043AF002E5A46BABF76422D232B23632E11
:10339C0002F8024B8BF801300ADD642196FBF1F345
:1033AC0003F130000BF103028BF8020001FB1366F2
:1033BC000A21934696FBF1F301FB136603F13000EF
:1033CC0030360BF8020B56701EE72E2307F1020B5A
:1033DC007B70002DC1DD119B002BBEDD11A912A845
:1033EC0002F06BFF013D0BF8010BF2E7C2464746BA
:1033FC00C2E74FF001082FE6B146682F59F8043B9D
:10340C0005D001DC482F07D0009A1A6001E0009A21
:10341C001A804E46059A3DE4009A1A70F9E7B146B7
:10342C0047F63003102259F8041BADF85C300DF14F
:10343C005E0002F0E2FE4FF00208861C2CE59A5D5D
:10344C00002A4AD001363CE517AC0822204602F08F
:10345C00D4FE17AEA61B06444FF000081CE50DF178
:10346C005D04F2E7752C05D10A2217A802F0C5FEFF
:10347C000646F1E7069B93B147F63003ADF85C3096
:10348C000DF15E071022384602F0B7FE582C08D01A
:10349C0017AE069BBE1B06444FEA4308FCE417AF6D
:1034AC00F0E717AA12F8013BA3F16101192903D81F
:1034BC00203B02F8013CF5E712F8013C002BF1D15E
:1034CC00E6E704992046FFF7EEBB009B013300931F
:1034DC00B1469EE74FF00108DEE41546F6E417AB63
:1034EC00002207E517AB089A04E5CDE907320499E9
:1034FC00019B202098470130DDE907323FF4D8AB1F
:10350C001BF1FF3BF1D20099214400915C46FBE496
:10351C00A346F5E713F8010B07930499019B089256
:10352C0098470130DDE907327FF4F0ACFFF7C0BB00
:10353C00323333330499019B079230209847013082
:10354C00079A7FF4E6ACFFF7B3BB0499019B98474D
:10355C0001303FF4ADAB1BF8010FE7E40499019B7C
:10356C003020984701307FF4E9ACFFF7A1BB0499F8
:10357C00019B30209847013008F1FF387FF4F6ACFE
:10358C00FFF796BB0499019B984701303FF490AB31
:10359C001BF8010FF4E40499019B3020984701308B
:1035AC0007F1FF377FF4F7ACFFF782BB04991BF8E8
:1035BC00010B019B984701303FF47AABA6EB0B0350
:1035CC00002BF3DC009B069A002C134400937FF72E
:1035DC0020AF254606E00499019B20209847013036
:1035EC003FF466AB15F1FF35F5D2009B23440093F5
:1035FC000FE700BF014B1860704700BF241D00206F
:10360C0008B5094B1A786AB90121197006200521F1
:10361C00FFF70CF80620FEF7E5FF044B4FF00042D5
:10362C00C3F80423002008BD6205002000600040A0
:10363C002DE9F7434B4F3D68012D66D14A4A9368FB
:10364C001268DC69D2F80880D3E902120A40D3E987
:10365C000510014322EA0102D8F800101B69D1F8C9
:10366C0010155C404C4022EA04042E464FF0000931
:10367C00002A39D13A603B680093009B3B4E0023F3
:10368C0001279C46D6F8042307FA03F1114214D003
:10369C009A0002F1804202F5C242116801290CD154
:1036AC0003F5A27056F82000C2F800C0126801920F
:1036BC00C0F304208140019A0C430133082BE1D163
:1036CC002CBB012D0DD1284B9C681B689E68D4E93E
:1036DC0002321A40D4E905310B4322EA03020027D7
:1036EC003ABB03B0BDE8F08332420AD098F80430FC
:1036FC0009F01F00002140EA431002F0F8FD22EA15
:10370C00060209F101097600B2E70024B6E7164F6C
:10371C00BB6819680029D4D00E688B681C4203D092
:10372C004B68224638469847002ECAD03146366838
:10373C00F3E7154212D0E169236996F804C04B40B7
:10374C00FB4013F0010F07F01F000CBF03210221F7
:10375C0040EA4C1002F0CBFD22EA050201376D0065
:10376C00BEE700BF7C610040A41D0020006000404B
:10377C0073B5036886689B6801F01F040D464E49BB
:10378C001B79D1F8042344EA4314D2B2002303F585
:10379C00A27051F82000C0F30420844270D122FAA8
:1037AC0003F0C0076CD59A0002F1804202F5C042CA
:1037BC00D2F8100520F00100C2F81005012202FA1F
:1037CC0003F3C1F808332046002102F090FDB068E5
:1037DC00E84010F0010051D0F068E84010F0010012
:1037EC004CD07069E84010F0010255D0B369EB4041
:1037FC00DB0749D43369F269EB4022FA05F503F093
:10380C00010305F00105AB4214BF012502252A4E28
:10381C00002101F5A27356F8230010F0030035D1F6
:10382C008B0003F1804303F5C0432402D3F8102529
:10383C0022F4473222F44072C3F81025D3F8102535
:10384C0004F4F85444EA0545154301F14002920092
:10385C0092B202F1804202F5C042C3F810551060DA
:10386C0012680192019AD3F8102542F00102C3F8B4
:10387C001025012303FA01F1C6F8041302B070BD40
:10388C000133082B83D19EE70325C0E701310829BA
:10389C00BFD16FF01200F1E7F16933694B4023FAA5
:1038AC0005F515F0010F20460CBF0321022102F093
:1038BC001EFD1046E2E700BF00600040054B1B6890
:1038CC002BB9054B1878003018BF01207047012028
:1038DC00704700BF1C21004063050020034B186893
:1038EC0018B1D3F85C03C3F85C0370472421004083
:1038FC00024B0422C3F80423704700BF0020004091
:10390C00024B0422C3F80823704700BF002000407C
:10391C00024B1868003018BF012070470821004086
:10392C00024B4FF40072C3F8042370470020004090
:10393C00024B4FF40072C3F808237047002000407C
:10394C00024B1960024B1A60704700BFD80300206D
:10395C00DC030020034B1B6813B1034A10681847A3
:10396C00704700BFD8030020DC030020034B8022EB
:10397C00C3F808230122DA6002F00CBE00200040DC
:10398C0008B502F006FE0D4B01221A608022C3F826
:10399C00FC224FF02002EFF3118382F31188BFF366
:1039AC006F8F074A12781AB1064A0421C2F8001127
:1039BC0083F31188BFF36F8F08BD00BF0820004050
:1039CC006305002000E100E030B54B79012B20D1DC
:1039DC008B79032B1DD1CC792CB1012C19D1036817
:1039EC009B681B78ABB10A7912B1022A11D10E2255
:1039FC000B6847F61225AB425FD027D8B3F5965F1C
:103A0C005ED012D8B3F5167F5CD005D8B3F5967F8F
:103A1C005BD06FF022004FE0B3F5966F58D0B3F542
:103A2C00166FF6D14FF41D233BE0B3F5615F52D016
:103A3C0004D8B3F5165FECD1304B32E0B3F5964FAA
:103A4C004CD0B3F5E14FE4D12D4B2AE0B3F5E13F77
:103A5C0046D011D84DF6C025AB4243D004D8B3F5AF
:103A6C00164FD6D1274B1CE0B3F5614F3DD0B3F5C3
:103A7C00963FCED1244B14E0B3F5E12F37D008D8C4
:103A8C00B3F5613F35D0214DAB42C2D14FF08063CD
:103A9C0007E0B3F5612F2ED01D4DAB42B9D14FF0DD
:103AAC0080531C4D2243C5F82435C5F86C2583681A
:103ABC0003C983E80300002030BD4FF40003F0E796
:103ACC00154BEEE74FF41C33EBE74FF4A033E8E76C
:103ADC004FF49E23E5E74FF46C13E2E70F4BE0E75E
:103AEC000F4BDEE74FF46503DBE70E4BD9E70E4BCC
:103AFC00D7E70E4BD5E70E4BD3E700BF005027009E
:103B0C0000F0750000509D0000903A0190D0030029
:103B1C0040420F000020004000B0130000A04E00F7
:103B2C0000E0D70100F0EB0000705F0700B0AF03BE
:103B3C0000D0BE0E08B50C4BD3F8042312F0800F46
:103B4C001A4605D1D2F8040310F0040006D108BDC2
:103B5C00FFF7B4FE0028F5D00120F8E7034B1868F6
:103B6C00003018BF0120F2E700200040082100407F
:103B7C004FF0A04337B51C4C4FF48012C3F8082506
:103B8C00032100221325C3F85017C3F84C27C4F89F
:103B9C0014551425C4F80C552025C3F80855C3F842
:103BAC001417C3F81C270523C4F808350723C4F8D9
:103BBC0010358168FFF708FF054690B90423C4F857
:103BCC0000350A4B18601B680193019B084B0121BF
:103BDC002160024602201970FEF728FD0220FEF734
:103BEC0001FD284603B030BD0020004008210040F4
:103BFC0063050020F7B50023094C0A4F1E46D8B2C6
:103C0C00151A002D02DD256801330DB903B0F0BD86
:103C1C00266025680195019DD7F818550D54EEE7DF
:103C2C00082100400020004007B50B4A0023136018
:103C3C0012680192019A094A1370094B01221A6009
:103C4C00C3F81415FFF73AFE0028FBD0054B0122F0
:103C5C001A6003B05DF804FB1C21004063050020D2
:103C6C00082000400C200040084B1A6882B052B16A
:103C7C00002018601B680193019B054BD3F8183585
:103C8C000B7002B070474FF0FF30FAE7082100408C
:103C9C00002000402DE9F3410D4E0E4FDFF8388027
:103CAC000024E5B2531B002B03DDFFF707FE0134A4
:103CBC0018B9284602B0BDE8F081002333603068A3
:103CCC00019001983B704B5DC8F81C35E9E700BFCB
:103CDC001C2100406305002000200040094B70B5FA
:103CEC0053F820400130002653F82050A54200D84C
:103CFC0070BD236820465B68984700B166600C3441
:103D0C00F4E700BFE06F0000104B70B5104C054697
:103D1C001E469C4204D10E4CB44209D1002412E040
:103D2C0062681AB122681268AA420CD00C34F0E70F
:103D3C0063680BB90C34EFE723682846196802F066
:103D4C00CEF90028F6D1204670BD00BFB01D002072
:103D5C00381D00200FB413B504AB094853F8044BBD
:103D6C00019301F051F901992046FCF727FC054815
:103D7C0001F04AF902B0BDE8104004B0704700BF32
:103D8C001D7E0000D472000010B504460248FFF7F7
:103D9C00E1FF204602F0FFFB787D000070B5044681
:103DAC000E4600F081FC042C96BF114B114A53F8BF
:103DBC002420054621461048FFF7CCFF284602F088
:103DCC0001FD024688B101780C4B002908BF1A4648
:103DDC0029460B48FFF7BEFF20463146FFF7D4FFBC
:103DEC002846BDE87040FEF767BE044AF0E700BF06
:103DFC00F86F0000D17D0000E77D0000DF7D000042
:103E0C00057E000008B50B4D4FF02002EFF3118337
:103E1C0082F31188BFF36F8F02F013FD012102288A
:103E2C000446D8BF084602F01CFD2C62FEF746FC87
:103E3C00EAE700BFB80400200248034A0021121A26
:103E4C0002F0B9B9000000206405002008B506484E
:103E5C00064A0749121A02F084F9064A064907482D
:103E6C00BDE8084002F07DB9A81C0020C41D00204C
:103E7C00787E000000000000787E0000000000202A
:103E8C0008B50220FFF72AFF074801F0BDF8032010
:103E9C00FFF724FF00F07AFC00F0B2FE034A137B1C
:103EAC0023F00103137308BD257E00004C04002091
:103EBC0080B53F4BA2B083F308883E4C3E4E6369FD
:103ECC0043F4007363610025E02384F82230E57726
:103EDC0025766576A576636A43F4E0236362FEF784
:103EEC00D7FDFEF7E5FB4FF0FF33A362E36207ABB0
:103EFC0029466C22184602F05EF90127B06028466C
:103F0C008DF82970FFF7EAFE3846FFF7E7FE2B4CD9
:103F1C0000F074FB2A4B74624FF48062CDE9047399
:103F2C00CDE90255CDE90055264B2749204600F036
:103F3C00E5FB637B23F0040213F01B0F6273354621
:103F4C0004D1A36913B9204600F0B4F91F4B204EDD
:103F5C00059301220F23CDE9033200234FF4A07205
:103F6C001C4900933046CDE901331B4B00F0C6FBD6
:103F7C00737BEE6023F004037373184BC5E90633AF
:103F8C00FEF7C0FD0D48AC6002F065F80D4B144A0D
:103F9C00184682F3098863B64FF0000181F311884B
:103FAC00BFF36F8F00210022002300F0A3FE00BF9F
:103FBC00A81A002000ED00E0B80400204C040020FA
:103FCC006C7E00008D3E0000680D0020717E0000AC
:103FDC00E003002068110020113E0000D0040020F6
:103FEC006811002070B50D4634498B68DA7B013AB4
:103FFC000446DA73C26808464AB1A36889688B42E2
:10400C0012D09DB900F03AF96FF00F050AE08B68F9
:10401C0093F90E30236101328368E260A36000F0F3
:10402C002DF90025284670BD2369F3E791F90E1090
:10403C0093F90E309942A8BF194621EAE1714FF06D
:10404C002003EFF3118683F31188BFF36F8FA06801
:10405C0090F90E30994201DA00F084FA2B46224690
:10406C003146174800F03CFA054610B900F006F945
:10407C00D8E7236821699C4207D033B193F90E30FD
:10408C009942A8BF194621EAE1714FF02003EFF3E2
:10409C00118583F31188BFF36F8FA06890F90E30F0
:1040AC00994201D000F05EFA85F31188BFF36F8F4F
:1040BC0000F0E4F86FF00A05B4E700BFB804002084
:1040CC00640500201E4B9A68D37B013B70B50446F7
:1040DC00D373C368012B05D0013BC360BDE87040AE
:1040EC0000F0CCB84FF02003EFF3118683F3118866
:1040FC00BFF36F8F0169806890F90E30994201D03F
:10410C0000F030FA204602F003FB0546A06080B1B7
:10411C00437BDB0603D183690BB900F0CBF886F344
:10412C001188BFF36F8F0023AB6695F90E302361B6
:10413C00D4E7E06086F31188BFF36F8FCEE700BF42
:10414C00B8040020EFF305800D2809D828B1054BE1
:10415C00586880F40060C0F3C02080F00100704704
:10416C000120FAE700ED00E010B5084C23685BB1C4
:10417C00FEF79EF92368064A184410610021184680
:10418C00BDE8104002F06DBB10BD00BFF004002074
:10419C00B8040020F8B50D464FF02003EFF311845E
:1041AC0083F31188BFF36F8F0D4B4FF4004140F236
:1041BC00E7360027C1FB006700221A6130464FF436
:1041CC007A7200233946FBF783FF064B1860064BC7
:1041DC001D60FFF7C9FF84F31188BFF36F8FF8BD23
:1041EC00B8040020F0040020EC0400204FF0200361
:1041FC00EFF3118183F31188BFF36F8F044B9A682F
:10420C00D37B013BD37381F31188BFF36F8F70475E
:10421C00B8040020094B03F12802824205D19B68A7
:10422C008B4202D14B7BDB0606D1D1E90032136005
:10423C005A600023C1E90033704700BFB804002066
:10424C0038B50D4C024604F1280002F02AFA054656
:10425C0000B9E568A3684AB95A7BD20606D1AA69A7
:10426C0022B9DA897F2A01D9636238BD9D4201D017
:10427C00FFF77AFF6562F8E7B804002010B54FF03D
:10428C002003EFF3118483F31188BFF36F8F084B76
:10429C009A68D37B0133D3730020FFF7D1FF84F3EB
:1042AC001188BFF36F8FBDE8104002F0D2B900BF88
:1042BC00B8040020F8B54FF02003EFF3118483F31A
:1042CC001188BFF36F8F154A114651F8283F8B4266
:1042DC001DD0E3B1D66A90F90E5093F90E70AF422F
:1042EC0010DD5A68C0E9003210605860437B43F01F
:1042FC00400343730020FFF7A3FF84F31188BFF33F
:10430C006F8FF8BDB34202D01B68002BE5D1D36A86
:10431C004360D36A01601860D062E7E7B8040020FC
:10432C00F8B504464FF02003EFF3118783F311889F
:10433C00BFF36F8F194D05F1280601463046FFF784
:10434C0069FFAB6AB3422A4620D0FBB1E86A94F904
:10435C000E1093F90E508D4213DD5968C4E90031EB
:10436C000C605C60637B906843F040036373031BD9
:10437C0058425841FFF764FF87F31188BFF36F8FE2
:10438C00F8BD834202D01B68002BE2D1D36A636074
:10439C00D36A26601C60D462E4E700BFB804002036
:1043AC00164A174938B50C689368A342144603D1D2
:1043BC00BDE83840FFF7D8BE00250D6011490968EB
:1043CC00C1B1D9897F2915D80F4993F90E500968C5
:1043DC008D420FDB0D4909688B420BD0996949B9A5
:1043EC001169814203DC1846FFF79AFFE0E7091ACE
:1043FC00116138BD00232361FBE700BFB804002026
:10440C00E8040020F0040020EC0400200C700000F4
:10441C0038B504464FF02003EFF3118583F3118870
:10442C00BFF36F8F437B5A0607D501460948FFF748
:10443C00F1FE637B23F040036373074B9868031B07
:10444C0058425841FFF7FCFE85F31188BFF36F8F7C
:10445C0038BD00BFE0040020B804002070B504464D
:10446C000D461646FFF7D4FF637B43F002036373DC
:10447C007DB12B68A5609D4227D033B394F90E20F3
:10448C0093F90E1091421ADD5A68C4E90032146097
:10449C005C60731C20D04FF4004540F2E7300021E3
:1044AC004FF47A72C5FB06010023FBF711FE0B4992
:1044BC00421C04F11800BDE8704000F0FFB96968B7
:1044CC008B4202D01B68002BDAD16B6863606B687F
:1044DC0025601C606C60DCE770BD00BFBB66000033
:1044EC0010B50C461146064A9068064A10601A46EA
:1044FC00FFF7B4FF2046BDE81040FEF71BB800BF25
:10450C00B8040020E8040020F8B5461C02F0C3F9FA
:10451C0034184FF02003EFF3118783F31188BFF3A6
:10452C006F8F0D4D0D4BA8681860FFF771FFA868D1
:10453C000B493246183000F0C1F9AA68537B43F09E
:10454C00100353733846FDF7F5FF02F0A4F9201A57
:10455C0020EAE070F8BD00BFB8040020E804002099
:10456C00BB6600002DE9F84304464FF02003EFF33F
:10457C00118983F31188BFF36F8F02F020F84EB2CC
:10458C008046002834D01C4D05F1280721463846BA
:10459C00FFF740FEAB6AA673BB422A4621D003B399
:1045AC00E96A93F90E00B04216DD5A68C4E900328C
:1045BC0014605C600120FFF743FE89F31188BFF3A0
:1045CC006F8FB8F1000F15D00B4B9B68DB7B8BB951
:1045DC00BDE8F84302F03DB8994202D01B68002BAD
:1045EC00DFD1D36A6360D36A27601C60D462E1E7D1
:1045FC00A673E2E7BDE8F883B8040020044B002161
:10460C0003F12802C3E90A220846FFF7C3BD00BF25
:10461C00B8040020F8B5224C224BA2681B689A42C1
:10462C0025D04FF02003EFF3118683F31188BFF3ED
:10463C006F8F04F12805A1682846FFF7EBFDA36AEC
:10464C00A268AB4224D01BB3E16A92F90E0093F935
:10465C000E70874217DD5968C2E900310A605A6052
:10466C000120FFF7EDFD86F31188BFF36F8F4FF03C
:10467C002003EFF3118083F31188BFF36F8FBDE834
:10468C00F840FDF757BF994202D01B68002BDED1D2
:10469C00E36A5360E36A15601A60E262E0E700BF08
:1046AC00B80400200C700000014B9868704700BFE4
:1046BC00B804002010B502464FF02003EFF311842C
:1046CC0083F31188BFF36F8F437B590704D484F3B2
:1046DC001188BFF36F8F10BD23F00403437302F0F6
:1046EC0063F810B11046FFF7E5FD21460248BDE81E
:1046FC00104001F08FBF00BF6405002030B587B0BB
:10470C0004460E9D04950D9D03950C9D02950B9DE5
:10471C0001950A9D0095FDF7A1FF034B9B6803B122
:10472C001B6E236607B030BDB804002070B586B090
:10473C00002605960E9E04960D9E03960C9E0296E0
:10474C000B9E0F9D01960A9E00960446FFF7D6FF1E
:10475C006B1C03D02DB92046FFF7ACFF204606B0EA
:10476C0070BD4FF4004640F2E73000214FF47A72EE
:10477C000023C6FB0501FBF7ABFC0349421C04F10B
:10478C00180000F09BF8E9E7BB6600002DE9F04F3C
:10479C00284E294D87B0B046B54205F1300410D3F0
:1047AC00FFF724FD244CDFF894A04FF4004940F2AD
:1047BC00E7360027444521D307B0BDE8F04FFFF79B
:1047CC005DBD54F8043C059354F8103C049354F824
:1047DC00143C039354F8183C029354F81C3C01937A
:1047EC0054F8203C009354E90A2354E90C01FFF7D8
:1047FC0085FF54F8303CDD642546CDE7616A4B1CDF
:10480C0004D0256821B92846FFF754FF3034D1E78E
:10481C00B346BC46C9FB01BC4FF47A720023584620
:10482C006146FBF755FC5146421C05F1180000F09F
:10483C0045F8EBE7B01D0020B01D0020BB66000062
:10484C000048704700630E01034B1B680BB9FDF762
:10485C002FBE0020704700BFF4040020036840B155
:10486C00074A5268904204D01BB19A6881680A4486
:10487C009A60426813605A600023C0E900337047A5
:10488C00301D00200B4B10B51C689C4208BF002447
:10489C00FFF7DAFF54B1A368181A20EAE070064B50
:1048AC001B6913B19842A8BF184610BD6FF00040A9
:1048BC00F5E700BF301D0020B804002070B5044699
:1048CC001646C1604FF02003EFF3118583F3118876
:1048DC00BFF36F8FFFF7B8FF184B1A68012EACBFF0
:1048EC00801901309A42A06001D05E6832B95A68D2
:1048FC0062605A68236014605C600AE09068A1688A
:10490C00884215DD411A91605168C4E900210C60A0
:10491C0054601A689A4206D0944204D1FFF7B2FF51
:10492C000021FDF777FD85F31188BFF36F8F70BD04
:10493C00091AB242A160DAD01268D7E7301D002004
:10494C002DE9F04B0446FFF72BFD4FF02003EFF35E
:10495C00118583F31188BFF36F8F214E214FDFF840
:10496C0088903460B846D9F8004032684C45D7E995
:10497C0000BC05D024B1A368934214DD9B1AA3603C
:10498C001BEB02004CEBE2710024C8E9000134601F
:10499C00FFF778FF2146FDF73DFD85F31188BFF346
:1049AC006F8FBDE8F08B1BEB03004CEBE371D31A5C
:1049BC0033600023C7E90001A3602046FFF74EFFD8
:1049CC0085F31188BFF36F8FE36898474FF020038E
:1049DC00EFF3118583F31188BFF36F8FC3E700BF2B
:1049EC00F404002000000020301D00202DE91848A0
:1049FC004FF02003EFF3118483F31188BFF36F8F13
:104A0C00FDF756FD074BD3E9002312EB000B43F1E6
:104A1C00000C5846614684F31188BFF36F8FBDE8D4
:104A2C00188800BF0000002010B5447B61F303041C
:104A3C00817B447362F3410181730022C1688260FF
:104A4C00024A0A40C0E9032310BD00BFFF0F020059
:104A5C002DE9F04F494B85B09B680093002601234C
:104A6C0007468A4690468DF8043004464FF0FF35D1
:104A7C00B146564517DB4FF02003EFF3118683F355
:104A8C001188BFF36F8F9DF8043003F0FF04002BE7
:104A9C0052D132462946384601F00CFF86F3118874
:104AAC00BFF36F8F54E04FF02003EFF3118B83F3C0
:104ABC001188BFF36F8F637B03F00F03022B03D0BE
:104ACC00042B04D0012B17D12269926801E02269D2
:104ADC0012688AB1E268C4F80890C2F304310B433F
:104AEC0063F31032E2608DF804908BF31188BFF3FE
:104AFC006F8F01361434BCE7B8F1000FF5D09DF878
:104B0C000420002AF1D0022B07D0042B0FD0012B4C
:104B1C0009D16A462146206903E020696A4621468C
:104B2C00103001F01DFFC4F808D00135DDE7206915
:104B3C006A4621460830F4E700238DF80430B8F1BA
:104B4C00000F09D186F31188BFF36F8F6FF00A0441
:104B5C00204605B0BDE8F08F02AA4346314608480E
:104B6C00CDE90222FFF7BCFC04464FF02003EFF323
:104B7C00118683F31188BFF36F8F8AE7B804002086
:104B8C006405002038B54FF02003EFF3118583F353
:104B9C001188BFF36F8F0368C16098424FF0010119
:104BAC00816006D185F31188BFF36F8F00242046F6
:104BBC0038BDD3E90020026050600022C3E9002216
:104BCC00184601F0A1FE29460446024801F022FDD8
:104BDC00EDE700BF6405002038B5074C074DAC422B
:104BEC0001D3002038BD04F114032046C4E9053379
:104BFC0000F037F81C34F2E7B01D0020B01D002087
:104C0C0008B5FBF751FC01213020FBF76BFC40F69B
:104C1C00B83001F0AAFDF6E770B5C66890F90B0044
:104C2C000C254D43884206EB0504B8BF7459002A85
:104C3C001046B8BF02F11F00401104EB800119604F
:104C4C0002F01F0070BD07B501ABFFF7E5FF019A3D
:104C5C00012303FA00F013680343136003B05DF8FB
:104C6C0004FB2DE9F843044643680089216894F855
:104C7C000A80FF225843E272014400224FF00C09D3
:104C8C00904505DC00252389AB4220DCBDE8F88388
:104C9C00D4F80CC0B0FBF3F609FB02F70CEB0705DC
:104CAC0005F1040E202EC5E901EE05D8E2729B0831
:104CBC0023F003030132E3E716F11F0548BF06F1A9
:104CCC003E056D114CF8071001EB8501EFE76268AA
:104CDC00E36820686A4381181E1D86509A684A60F2
:104CEC009A682046116099602A460021FFF7ABFFB5
:104CFC000135C8E708B50446084611461A46A047D0
:104D0C00FFF7D2FCFDF7D8FE0020704770B50446C3
:104D1C000D464520A04729465220A0472946234648
:104D2C005220BDE8704018472DE9F04F8BB01C465F
:104D3C004FF00008531E06460F4602934FF0FF3A01
:104D4C00C146002505E06DB9252800F04F81394694
:104D5C00B047029B13F8010F02930028F3D10BB05C
:104D6C00BDE8F08F64286ED01AD839280AD83128BB
:104D7C0060D22D2800F0408130284CD0252807D156
:104D8C0039460BE0582800F0BB80632800F02A81DC
:104D9C0039462520B047029B18783946B047D0E7F2
:104DAC00702800F0A38011D869284CD06C2805D14C
:104DBC00B8F16C0F2AD14FF04C08CAE76828E7D13C
:104DCC00B8F1680F22D14FF04808C2E7752871D0AE
:104DDC0018D87328DCD154F8045BAB465B461BF83F
:104DEC00010B002840F0FB80B9F1030F40F00A8161
:104DFC005D1BAAEB0505002DA3DD39462020B0472D
:104E0C00013DF8E778287BD07A28C1D1B8F1000FA2
:104E1C00BED180469DE7BAF1000F0EDAB9F1000F52
:104E2C0000F0ED80A0F1300AB9F1000F08BF4FF08F
:104E3C0002098EE7BAF1000FF4DB0A2303FB0A0A1E
:104E4C00AAF1300AF0E7B8F17A0F02D154F8045BFA
:104E5C001FE0B8F16C0FF9D0B8F14C0FF6D1073454
:104E6C0024F00704F4E8022312F10041069143F107
:104E7C0000010791DDE906BC00214FF0FF306145D0
:104E8C0008BF584504D239463046FFF73FFF58E774
:104E9C001546002D05DA39462D20B0476D420AF132
:104EAC00FF3ACDF800A04B462A4639463046FBF770
:104EBC0033FB46E7B8F17A0F02D154F8042B11E01A
:104ECC00B8F16C0FF9D0B8F14C0FF6D1073424F0CF
:104EDC000704F4E8022300214FF0FF30994208BF89
:104EEC009042D0D3CDF800A04B46DEE739463020B7
:104EFC00B04739467820B0474FF0080A4FF0010907
:104F0C00029B1B78702B04D154F8043B04930023B0
:104F1C000DE0B8F16C0FF7D0B8F14C0FF4D10734A9
:104F2C0024F007031C465B6854F8082B04920021FC
:104F3C001022039105914FF0400BABF1040B049838
:104F4C00CBF1200CABF1200120FA0BF003FA0CFC96
:104F5C0040EA0C0023FA01F1084310F00F0008D1CD
:104F6C00059911B9BBF1000F24D1302105E005954D
:104F7C00E3E709288CBF57213021084440B2394659
:104F8C0008930592B047039B059A01330393089B42
:104F9C00BBF1000FEBD1B9F1030F7FF4D2AE039B41
:104FAC00C3EB4A05002D7FF7CCAE39462020B04725
:104FBC00013DF7E7511E9245089107DBB9F1010F4E
:104FCC0006D1099339463020B047099B089AB4E7BB
:104FDC00B9F1020FFAD1099339462020F4E739468A
:104FEC00B047FBE6394654F8040BD7E6A846A94669
:104FFC004FF0FF3A0125ACE64FF00309A9E64FF05C
:10500C000109A6E60546A4E60FB407B504A951F8B4
:10501C00040B0191FBF7D2FA03B05DF804EB04B07A
:10502C0070470369D0E90020824296BF9B1802F1B9
:10503C00FF3303F1FF33181A7047036870B58468A7
:10504C000669A342A6EB040598BF9B19013B954248
:10505C00A3EB040328BF1546AB42426928BF2B467D
:10506C0022441C44A64298BFA41B0A6084601846C4
:10507C0070BD10B50446FFF7D4FF884209D36368AE
:10508C0019442369994228BFC91AC4E901110020A7
:10509C0010BD6FF01500FBE72DE9F34180460F467C
:1050AC0016460025324601A94046FFF7C6FF394691
:1050BC0004460246019801F054F8361B2544274457
:1050CC0001D0002CEED129464046FFF7D2FF2846EE
:1050DC0002B0BDE8F081F0B5D0E903364468A342D4
:1050EC0095BFF71803F1FF3507F1FF372D1B98BF5C
:1050FC003D1B741E641BF51AAA4228BF2A46A24205
:10510C0028BF224644691C4413449E4298BF9B1BF3
:10511C000C60C3601046F0BD38B505690446FFF756
:10512C0080FF6B1E181A884208D3236819448D42DD
:10513C0098BF491B2160E160002038BD6FF015005D
:10514C00FBE72DE9F34180460F4616460025324613
:10515C0001A94046FFF7BFFF0199044602463846B5
:10516C0000F0FFFF361B2544274401D0002CEED164
:10517C0029464046FFF7D0FF284602B0BDE8F08133
:10518C007047FBF785BA0B0704D5A0F14103192B27
:10519C0098BF203070472DE9F04F87B08A461446EF
:1051AC000293054618B9012007B0BDE8F08F00291D
:1051BC00F9D0029B002B00F0148104F004030A4682
:1051CC000493A846214618F8010BFFF7DCFFC0B288
:1051DC003F280646177822D00ADCC0B12A2835D0E1
:1051EC00214638460132FFF7CEFF86421ED0DAE761
:1051FC005B287AD05C28F3D1E307F1D46878FFF709
:10520C00C2FFC6B2002EEBD005F10208E8E7E406B7
:10521C0001D52F2FC8D0381C18BF0120C4E7002F90
:10522C00C1D02F2F04D1A107BDD401324546C8E708
:10523C002E2FFAD1049B002BF7D05245B3D0A307E5
:10524C00F3D512F8013C2F2BEFD1ACE76878FFF7C0
:10525C009AFFC1B22A2918D02E2F09D1049B3BB139
:10526C005245A0D0A70703D512F8013C2F2B9AD09A
:10527C0079B914F0020097D0E60600F1B4802F2122
:10528C00104600F017FF0030C6E7214618F8010F52
:10529C00DDE72F2901D1A50720D4029B15465F1EFF
:1052AC0024F0040904F0020AAB4621469BF80000E6
:1052BC00FFF769FFC6B20135002E3FF474AF3B46D1
:1052CC004A4659464046FFF766FF01287FF46CAF0B
:1052DC002F2EE9D1BAF1000FE6D064E7104600F0AA
:1052EC00E9FE02460028A1D15DE7002F3FF45BAF39
:1052FC002F2F02D1A0073FF556AF21463846FFF7B6
:10530C0042FF0090B8F1000F3FF44DAF6B78212BAA
:10531C0001D05E2B26D1023501230193012304EA2F
:10532C0003014FF0000B03912E46214616F8010B9A
:10533C000593FFF728FF5FFA80F9B9F15D0F059B24
:10534C0013D12BBB019B5B453FF42DAF002E3FF4DB
:10535C002AAF711C03D15B2F7FF425AF4646013277
:10536C00B04663E745460023D7E7B9F12F0FF2D0DB
:10537C00B9F15C0F08D1039B53B921466878FFF74C
:10538C0002FFAE1C5FFA80F9B9F1000F3FF40BAFCE
:10539C0033782D2B1ED121467078FFF7F4FEC0B266
:1053AC00C0B15D2816D05C2806F1020509D1039B1B
:1053BC003BB9B078FFF7E7FEC0B2F51C00283FF40C
:1053CC00F2AE009B4B4503DB8342D8BF4FF0010B81
:1053DC000023A9E7009B35464B4508BF4FF0010B56
:1053EC00F6E70320E0E60846DEE64023FFF7D3BEEF
:1053FC0008B510B100F06CFE80B208BD0EB403B558
:10540C0003AA52F8041B0192FCF742F902B05DF8B2
:10541C0004EB03B0704710B50446FCF70DFC2046B6
:10542C00BDE81040FCF798BB836802221A71002279
:10543C0083F838209A865A86FCF7D0BA8B6820B944
:10544C0003F517700021FFF79DBB03F52370F9E7F7
:10545C000CB437B5044680680D4600F53B704FF030
:10546C00FF31FEF7BFFDA368D3F858321A0602D4F9
:10547C00204600F0E2FA07AB069A01932946204633
:10548C0000F02AFBA368D3F858321B0602D420463E
:10549C00FCF7A4FA606900F00AF8A06800F53B700C
:1054AC00FEF710FE03B0BDE8304002B07047026951
:1054BC0083681268016810B50446C0689847236970
:1054CC0000221A6010BD38B5CB681B7C022B054638
:1054DC000C4604D10A2802D10D20FFF7F4FF2369F2
:1054EC0022681B68D5542269136801331360626803
:1054FC00934202D12046FFF7DAFF002038BD202866
:10550C0005D0093804288CBF0020012070470120E9
:10551C00704708B510B100F0DBFD80B208BD10B5C6
:10552C00037B44891A441944B2FBF4F0B1FBF4F345
:10553C0004FB102004FB1313C01A10BD10B5037B21
:10554C0044891A441944B2FBF4F0B1FBF4F1401A4B
:10555C0010BD30B5047B45892144B1FBF5F305FB47
:10556C00131101310133224401808380B2FBF5F326
:10557C00591C05FB13230133C180438030BD2DE939
:10558C00F84F002506460F461446984605602078CD
:10559C0040B1FFF7B4FF60B1002304F8013B33685E
:1055AC004345F4D33368002247F823202846BDE84E
:1055BC00F88F33685A1C326047F82340054694F83C
:1055CC000090B9F1000FEAD0002D40F08980B9F1BC
:1055DC00270F06D0B9F15C0F00F08A80B9F1220FC9
:1055EC0076D12046FFF795FF611C0246204600F05D
:1055FC00A1FD4D46E3E72046FFF78BFF611C0246F9
:10560C00204600F097FD0025D9E7302925D102234B
:10561C004FF0000AE15CA1F13002D0B207285FFA2A
:10562C0083F917D8013342EACA0A052B5FFA8AFAC2
:10563C00F0D199462046FFF76CFF09F1FF3BA344DC
:10564C00821CA2EB09022046594600F073FD04F8B7
:10565C0001ABB4E7B9F1020FECD178293ED10222AB
:10566C004FF00009A35CA3F130015FFA81FCBCF19F
:10567C00090FD0B219D841EA0913032A5FFA83F94A
:10568C0011D14FF0040B2046FFF743FF0BF1FF3A0B
:10569C00A244821CA2EB0B022046514600F04AFDAC
:1056AC0004F8019B8BE70322DCE7A3F161010529D8
:1056BC0003D8573B43EA0913DFE7A3F1410105295E
:1056CC0001D8373BF6E7022808D04FF0030BDAE796
:1056DC004846FFF714FF00287FF461AF01346EE7F2
:1056EC00A94588D0B9F15C0FF8D161788D428CD185
:1056FC002046FFF70EFF04F10109024649462046F9
:10570C0000F018FD4C465AE7F8B50E461146154602
:10571C00074600F0A8FC04462846FFF7FAFE0546AB
:10572C00C4B1A74207D214F8013C202B02BF0135AB
:10573C00ADB204F1FF342046FFF7EBFE3388421B79
:10574C005B1B013233806119204692B2BDE8F840F0
:10575C0000F0F0BCF8BD2DE9F04F87B01D460024D9
:10576C009DF8443003938146884617462C60A24628
:10577C002B68434503D3504607B0BDE8F08F57F86C
:10578C00230000F00BFC2E6810B101362E60EFE701
:10579C0057F826B005900346109A019205AA00927C
:1057AC0021463246484603F1010AFBF785FF059B6B
:1057BC003BB11968584600F092FC059A20B9924604
:1057CC0032B94FF0000AD6E75346002AE4D1F8E785
:1057DC002B6894685A1C2A60002CF2D0039A002A79
:1057EC00C6D02278002AC3D02B60EAE72DE9F84313
:1057FC000746FFF78EFE80464FBBBDE8F8835CB1D1
:10580C0008F10102681C121B384400F093FCA8EB51
:10581C0004041FFA84F84C4608F1FF339E42ECDA7C
:10582C00B85DFFF76CFE35460136B6B20028F3D0F2
:10583C0033469AB29045EFD9F85CF918FFF75FFE42
:10584C00013381460028DAD00134A4B2F1E70026F6
:10585C003446E1E72DE9F041846894F83830064687
:10586C005BB9B3685A8E9A86BDE8F081013B9BB256
:10587C00638623B984F83830F3E704F13805638E76
:10588C00EA1812F8010CFFF73AFE0028EED1E854A2
:10589C0003461FFA83F8474615F80800E919FFF785
:1058AC002EFE01330028F4D1B8F1000FD9D0628E4E
:1058BC000132D21B284600F03DFC638EA3EB08039B
:1058CC006386CEE70EB403B503AA52F8041B01920B
:1058DC00FBF7DEFE02B05DF804EB03B0704738B5A1
:1058EC000368044618685D8E10B100F0F1FB80B2BD
:1058FC0023685A8D2844B0FBF2F302FB1300B0FA74
:10590C0080F0400938BD38B58368044618689D8E10
:10591C0010B100F0DDFB80B2A3685A8D2844B0FBB7
:10592C00F2F302FB1300B0FA80F0400938BDF8B571
:10593C0004468068838E428E19448DB220301946FD
:10594C00FFF707FEA0682A46818E2030FFF7F6FD90
:10595C000746A0682A46818E2030FFF7E0FD794289
:10596C0006462046FBF7DAFE31462046FBF7E6FEFC
:10597C00A3689D86F8BD2DE9F8430C1E064632DA65
:10598C00644224B24FF0FF35AFB222E0B368B3F8F3
:10599C0034E0B3F8329003F1380800207346A3EBDF
:1059AC000E0109B20BB96A1C10D0994501D1012D19
:1059BC000CD018F8032042F0200CACF1610CBCF1B7
:1059CC00190F0CD9303A092A09D948B13046FFF7DA
:1059DC00AEFF013C24B2631CD8D1BDE8F883012092
:1059EC003B449BB2DBE70125CEE78368998E4942A5
:1059FC0009B2FFF79CBF8368598E9B8EC91A09B2F6
:105A0C00FFF795BF83689B8E1BB14FF0FF31FFF7FB
:105A1C008EBF704783689A8E5B8E9A4202D20121A8
:105A2C00FFF785BF704783689A8E5A86134400220D
:105A3C0083F838204069FBF769BE10B504468068CE
:105A4C00428E818E2030FFF784FDA368198C20468E
:105A5C00C1F10101FBF772FEA368998C2046013954
:105A6C00FBF75CFE6069BDE81040FBF74FBE2DE90B
:105A7C00F341074688461446002614B902B0BDE827
:105A8C00F081786803682246DD6808EB060101ABFB
:105A9C00A847019D2E44641B002DEED1B8680379F4
:105AAC00032BEAD0022B0AD84FF0FF32012100F56C
:105ABC003670FEF7CDFFBB68C3F89452DDE7D0F823
:105ACC005832DB06FBD5B0F858326FF30413A0F84C
